:100000000C9434000C9449000C9449000C94490061
:100010000C9449000C9449000C9449000C9449003C
:100020000C9449000C9449000C9449000C9449002C
:100030000C9449000C9449000C9449000C9449001C
:100040000C9449000C9449000C9449000C9449000C
:100050000C9449000C9449000C9449000C944900FC
:100060000C9449000C94490011241FBECFEFD8E036
:10007000DEBFCDBF11E0A0E0B1E0E8EBF2E002C0EE
:1000800005900D92A431B107D9F70E9434010C9468
:100090005A010C940000883018F5613069F44AB1B7
:1000A00021E030E0B90102C0660F771F8A95E2F7C0
:1000B000CB01842B8AB908954AB121E030E0F901DF
:1000C00002C0EE0FFF1F8A95E2F7CF012E2F209579
:1000D00024232AB9623049F59BB1892B8BB9089545
:1000E0008E3018F58850613069F444B121E030E079
:1000F000B90102C0660F771F8A95E2F7CB01842B06
:1001000084B9089544B121E030E0F90102C0EE0F56
:10011000FF1F8A95E2F7CF012E2F2095242324B9C3
:10012000623019F495B1892B85B908958830E8F4C7
:10013000613069F44BB121E030E0B90102C0660FD3
:10014000771F8A95E2F7CB01842B8BB908954BB1C9
:1001500021E030E0B90102C0660F771F8A95E2F70F
:10016000CB01809584238BB908958E30E8F48850B4
:10017000613069F445B121E030E0B90102C0660F99
:10018000771F8A95E2F7CB01842B85B9089545B195
:1001900021E030E0B90102C0660F771F8A95E2F7CF
:1001A000CB018095842385B90895FF920F931F9307
:1001B000CF93DF93F82ED62F042F122F60E08D2FD0
:1001C0000E949600C0E02CC001110AC0812F90E06F
:1001D0000C2E02C0959587950A94E2F781700CC0A9
:1001E00027E030E02C1B3109812F90E002C095956B
:1001F00087952A95E2F78170813029F461E08F2D8F
:100200000E94960004C060E08F2D0E94960061E07D
:100210008D2F0E94960060E08D2F0E949600CF5F88
:10022000C83090F2DF91CF911F910F91FF90089508
:10023000CF93C82F60E084E00E949600EC2FF0E09E
:10024000EE0FFF1FE050FF4F208140E062E083E0AF
:100250000E94D50061E084E00E94960060E084E0A6
:100260000E949600CF91089561E082E00E944B00C9
:1002700061E083E00E944B0061E084E00E944B005B
:1002800060E084E00E94960080E003C08C2F01C0F3
:1002900080E0C1E0C80F60E00E9418012FEF83ECFE
:1002A00099E0215080409040E1F700C00000CA3042
:0802B00078F7ECCFF894FFCFC2
:1002B800FC006000DA00F2006600B600BE00E00054
:0402C800FE00F6003E
:00000001FF
