S02B00004469676974616C204D6963726F2046696E616C2050726F6A6563742D53746F70776174636820546934
S11300000C9434000C9451000C9451000C94510045
S11300100C9451000C9451000C9451000C94510018
S11300200C9451000C9451000C9451000C94510008
S11300300C9451000C9451000C9451000C945100F8
S11300400C9451000C9451000C9451000C945100E8
S11300500C9451000C9451000C9451000C945100D8
S11300600C9451000C94510011241FBECFEFD8E022
S1130070DEBFCDBF11E0A0E0B1E0E2E8F3E002C0F2
S113008005900D92A830B107D9F721E0A8E0B1E0BE
S113009001C01D92AB30B207E1F70E9463010C94DA
S11300A0BF010C94000080930A01609309014093FE
S11300B0080161E00E94C80061E0809109010E948A
S11300C0C80061E0809108010E94C80060E080914E
S11300D008010E9413010895009709F458C077237A
S11300E00CF455C06330710549F06530710531F089
S11300F06630710519F06730710529F5181619066F
S113010064F4FA01E60FF71F2081293031F41082DC
S1130110615071090E946C00089599236CF4FA01EE
S1130120E60FF71F2081211107C029E020836150C9
S113013071090E946C000895FA01E60FF71F90817F
S1130140890F808308951816190664F4FA01E60FDE
S1130150F71F2081253031F41082615071090E940B
S11301606C00089599236CF4FA01E60FF71F2081BF
S1130170211107C025E02083615071090E946C00A1
S11301800895FA01E60FF71F9081890F808308957F
S1130190883018F5613069F44AB121E030E0B901E2
S11301A002C0660F771F8A95E2F7CB01842B8AB9C8
S11301B008954AB121E030E0F90102C0EE0FFF1FBB
S11301C08A95E2F7CF012E2F209524232AB9623095
S11301D049F59BB1892B8BB908958E3018F5885059
S11301E0613069F444B121E030E0B90102C0660F26
S11301F0771F8A95E2F7CB01842B84B9089544B123
S113020021E030E0F90102C0EE0FFF1F8A95E2F70A
S1130210CF012E2F2095242324B9623019F495B1EF
S1130220892B85B908958830E8F4613069F44BB1BD
S113023021E030E0B90102C0660F771F8A95E2F72A
S1130240CB01842B8BB908954BB121E030E0B90187
S113025002C0660F771F8A95E2F7CB01809584234D
S11302608BB908958E30E8F48850613069F445B153
S113027021E030E0B90102C0660F771F8A95E2F7EA
S1130280CB01842B85B9089545B121E030E0B90153
S113029002C0660F771F8A95E2F7CB01809584230D
S11302A085B9089588E08093C10086E08093C200F8
S11302B087E68093C40008959091C00095FFFCCF19
S11302C08093C6000895CF93DF93CDB7DEB7289708
S11302D00FB6F894DEBF0FBECDBF88E0E0E0F1E0DA
S11302E0DE01119601900D928A95E1F70E94520168
S11302F044E063E082E00E945300AE014F5F5F4F31
S113030067E070E08FEF9FEF0E946C0000E010E068
S113031023C091E00230110509F090E081E004303F
S1130320110509F080E0892B91E00630110509F0F0
S113033090E0811102C0992319F08AE30E945C01C4
S1130340E1E0F0E0EC0FFD1FE00FF11F8081805D24
S11303500E945C010F5F1F4F08301105D4F28DE03D
S11303600E945C018AE00E945C012FEF83ED90E320
S1130370215080409040E1F700C00000BECFF894C7
S1050380FFCFA9
S10B0382000005090509090545
S9030000FC
